{
	"_format": "hh-sol-artifact-1",
	"contractName": "WavePortal",
	"sourceName": "contracts/WavePortal.sol",
	"abi": [
		{
			"inputs": [],
			"stateMutability": "payable",
			"type": "constructor"
		},
		{
			"anonymous": false,
			"inputs": [
				{
					"indexed": true,
					"internalType": "address",
					"name": "from",
					"type": "address"
				},
				{
					"indexed": false,
					"internalType": "uint256",
					"name": "timestamp",
					"type": "uint256"
				},
				{
					"indexed": false,
					"internalType": "string",
					"name": "message",
					"type": "string"
				}
			],
			"name": "NewWave",
			"type": "event"
		},
		{
			"inputs": [],
			"name": "getAllWaves",
			"outputs": [
				{
					"components": [
						{
							"internalType": "address",
							"name": "waver",
							"type": "address"
						},
						{
							"internalType": "string",
							"name": "message",
							"type": "string"
						},
						{
							"internalType": "uint256",
							"name": "timestamp",
							"type": "uint256"
						}
					],
					"internalType": "struct WavePortal.Wave[]",
					"name": "",
					"type": "tuple[]"
				}
			],
			"stateMutability": "view",
			"type": "function"
		},
		{
			"inputs": [],
			"name": "getTotalWaves",
			"outputs": [
				{
					"internalType": "uint256",
					"name": "",
					"type": "uint256"
				}
			],
			"stateMutability": "view",
			"type": "function"
		},
		{
			"inputs": [
				{
					"internalType": "address",
					"name": "_addr",
					"type": "address"
				}
			],
			"name": "getWavesByUser",
			"outputs": [
				{
					"internalType": "uint256",
					"name": "",
					"type": "uint256"
				}
			],
			"stateMutability": "view",
			"type": "function"
		},
		{
			"inputs": [
				{
					"internalType": "address",
					"name": "",
					"type": "address"
				}
			],
			"name": "lastWavedAt",
			"outputs": [
				{
					"internalType": "uint256",
					"name": "",
					"type": "uint256"
				}
			],
			"stateMutability": "view",
			"type": "function"
		},
		{
			"inputs": [
				{
					"internalType": "address",
					"name": "",
					"type": "address"
				}
			],
			"name": "userWaves",
			"outputs": [
				{
					"internalType": "uint256",
					"name": "",
					"type": "uint256"
				}
			],
			"stateMutability": "view",
			"type": "function"
		},
		{
			"inputs": [
				{
					"internalType": "string",
					"name": "_message",
					"type": "string"
				}
			],
			"name": "wave",
			"outputs": [],
			"stateMutability": "nonpayable",
			"type": "function"
		}
	],
	"bytecode": "0x60806040526200004f6040518060400160405280601981526020017f57652068617665206265656e20636f6e737472756374656421000000000000008152506200007760201b620007f31760201c565b606444426200005f9190620001c4565b6200006b919062000261565b60018190555062000308565b62000117816040516024016200008e919062000184565b6040516020818303038152906040527f41304fac000000000000000000000000000000000000000000000000000000007bffffffffffffffffffffffffffffffffffffffffffffffffffffffff19166020820180517bffffffffffffffffffffffffffffffffffffffffffffffffffffffff83818316178352505050506200011a60201b60201c565b50565b60008151905060006a636f6e736f6c652e6c6f679050602083016000808483855afa5050505050565b60006200015082620001a8565b6200015c8185620001b3565b93506200016e8185602086016200022b565b6200017981620002f7565b840191505092915050565b60006020820190508181036000830152620001a0818462000143565b905092915050565b600081519050919050565b600082825260208201905092915050565b6000620001d18262000221565b9150620001de8362000221565b9250827fffffffffffffffffffffffffffffffffffffffffffffffffffffffffffffffff0382111562000216576200021562000299565b5b828201905092915050565b6000819050919050565b60005b838110156200024b5780820151818401526020810190506200022e565b838111156200025b576000848401525b50505050565b60006200026e8262000221565b91506200027b8362000221565b9250826200028e576200028d620002c8565b5b828206905092915050565b7f4e487b7100000000000000000000000000000000000000000000000000000000600052601160045260246000fd5b7f4e487b7100000000000000000000000000000000000000000000000000000000600052601260045260246000fd5b6000601f19601f8301169050919050565b6113ae80620003186000396000f3fe608060405234801561001057600080fd5b50600436106100625760003560e01c80631e5c602314610067578063449d46c0146100975780639a2cdc08146100b3578063a42a4663146100d1578063bd43a90814610101578063c6b571d31461011f575b600080fd5b610081600480360381019061007c9190610bac565b61014f565b60405161008e9190611040565b60405180910390f35b6100b160048036038101906100ac9190610bd5565b610167565b005b6100bb610577565b6040516100c89190611040565b60405180910390f35b6100eb60048036038101906100e69190610bac565b6105c2565b6040516100f89190611040565b60405180910390f35b6101096105da565b6040516101169190610efe565b60405180910390f35b61013960048036038101906101349190610bac565b61072b565b6040516101469190611040565b60405180910390f35b60026020528060005260406000206000915090505481565b42601e600460003373ffffffffffffffffffffffffffffffffffffffff1673ffffffffffffffffffffffffffffffffffffffff168152602001908152602001600020546101b4919061115d565b106101f4576040517f08c379a00000000000000000000000000000000000000000000000000000000081526004016101eb90611020565b60405180910390fd5b42600460003373ffffffffffffffffffffffffffffffffffffffff1673ffffffffffffffffffffffffffffffffffffffff16815260200190815260200160002081905550600160008082825461024a919061115d565b925050819055506001600260003373ffffffffffffffffffffffffffffffffffffffff1673ffffffffffffffffffffffffffffffffffffffff16815260200190815260200160002060008282546102a1919061115d565b925050819055506102e76040518060400160405280600d81526020017f25732068617320776176656421000000000000000000000000000000000000008152503361088c565b600360405180606001604052803373ffffffffffffffffffffffffffffffffffffffff16815260200183815260200142815250908060018154018082558091505060019003906000526020600020906003020160009091909190915060008201518160000160006101000a81548173ffffffffffffffffffffffffffffffffffffffff021916908373ffffffffffffffffffffffffffffffffffffffff16021790555060208201518160010190805190602001906103a6929190610a8c565b50604082015181600201555050606460015442446103c4919061115d565b6103ce919061115d565b6103d89190611263565b600181905550603260015411610524576104276040518060400160405280600781526020017f257320776f6e21000000000000000000000000000000000000000000000000008152503361088c565b6000655af3107a4000905047811115610475576040517f08c379a000000000000000000000000000000000000000000000000000000000815260040161046c90610fe0565b60405180910390fd5b60003373ffffffffffffffffffffffffffffffffffffffff168260405161049b90610ee9565b60006040518083038185875af1925050503d80600081146104d8576040519150601f19603f3d011682016040523d82523d6000602084013e6104dd565b606091505b5050905080610521576040517f08c379a000000000000000000000000000000000000000000000000000000000815260040161051890611000565b60405180910390fd5b50505b3373ffffffffffffffffffffffffffffffffffffffff167f5f7e16dc676677766a70e9c5628aa6c54ddb8b6e5188e2ae1e1f17f1ffbea716428360405161056c92919061105b565b60405180910390a250565b60006105ba6040518060400160405280601781526020017f5765206861766520256420746f74616c20776176657321000000000000000000815250600054610928565b600054905090565b60046020528060005260406000206000915090505481565b60606003805480602002602001604051908101604052809291908181526020016000905b8282101561072257838290600052602060002090600302016040518060600160405290816000820160009054906101000a900473ffffffffffffffffffffffffffffffffffffffff1673ffffffffffffffffffffffffffffffffffffffff1673ffffffffffffffffffffffffffffffffffffffff16815260200160018201805461068790611231565b80601f01602080910402602001604051908101604052809291908181526020018280546106b390611231565b80156107005780601f106106d557610100808354040283529160200191610700565b820191906000526020600020905b8154815290600101906020018083116106e357829003601f168201915b50505050508152602001600282015481525050815260200190600101906105fe565b50505050905090565b60006107ac6040518060400160405280601681526020017f2573206861732077617665642025732074696d6573210000000000000000000081525083600260008673ffffffffffffffffffffffffffffffffffffffff1673ffffffffffffffffffffffffffffffffffffffff168152602001908152602001600020546109c4565b600260008373ffffffffffffffffffffffffffffffffffffffff1673ffffffffffffffffffffffffffffffffffffffff168152602001908152602001600020549050919050565b610889816040516024016108079190610f20565b6040516020818303038152906040527f41304fac000000000000000000000000000000000000000000000000000000007bffffffffffffffffffffffffffffffffffffffffffffffffffffffff19166020820180517bffffffffffffffffffffffffffffffffffffffffffffffffffffffff8381831617835250505050610a63565b50565b61092482826040516024016108a2929190610f42565b6040516020818303038152906040527f319af333000000000000000000000000000000000000000000000000000000007bffffffffffffffffffffffffffffffffffffffffffffffffffffffff19166020820180517bffffffffffffffffffffffffffffffffffffffffffffffffffffffff8381831617835250505050610a63565b5050565b6109c0828260405160240161093e929190610fb0565b6040516020818303038152906040527f9710a9d0000000000000000000000000000000000000000000000000000000007bffffffffffffffffffffffffffffffffffffffffffffffffffffffff19166020820180517bffffffffffffffffffffffffffffffffffffffffffffffffffffffff8381831617835250505050610a63565b5050565b610a5e8383836040516024016109dc93929190610f72565b6040516020818303038152906040527f07c81217000000000000000000000000000000000000000000000000000000007bffffffffffffffffffffffffffffffffffffffffffffffffffffffff19166020820180517bffffffffffffffffffffffffffffffffffffffffffffffffffffffff8381831617835250505050610a63565b505050565b60008151905060006a636f6e736f6c652e6c6f679050602083016000808483855afa5050505050565b828054610a9890611231565b90600052602060002090601f016020900481019282610aba5760008555610b01565b82601f10610ad357805160ff1916838001178555610b01565b82800160010185558215610b01579182015b82811115610b00578251825591602001919060010190610ae5565b5b509050610b0e9190610b12565b5090565b5b80821115610b2b576000816000905550600101610b13565b5090565b6000610b42610b3d846110bc565b61108b565b905082815260208101848484011115610b5a57600080fd5b610b658482856111ef565b509392505050565b600081359050610b7c81611361565b92915050565b600082601f830112610b9357600080fd5b8135610ba3848260208601610b2f565b91505092915050565b600060208284031215610bbe57600080fd5b6000610bcc84828501610b6d565b91505092915050565b600060208284031215610be757600080fd5b600082013567ffffffffffffffff811115610c0157600080fd5b610c0d84828501610b82565b91505092915050565b6000610c228383610e7b565b905092915050565b610c33816111b3565b82525050565b610c42816111b3565b82525050565b6000610c53826110fc565b610c5d818561111f565b935083602082028501610c6f856110ec565b8060005b85811015610cab5784840389528151610c8c8582610c16565b9450610c9783611112565b925060208a01995050600181019050610c73565b50829750879550505050505092915050565b6000610cc882611107565b610cd2818561113b565b9350610ce28185602086016111fe565b610ceb81611350565b840191505092915050565b6000610d0182611107565b610d0b818561114c565b9350610d1b8185602086016111fe565b610d2481611350565b840191505092915050565b6000610d3c60348361114c565b91507f547279696e6720746f207769746864726177206d6f7265206d6f6e657920746860008301527f616e2074686520636f6e7472616374206861732e0000000000000000000000006020830152604082019050919050565b6000610da260278361114c565b91507f4661696c656420746f207769746864726177206d6f6e65792066726f6d20636f60008301527f6e74726163742e000000000000000000000000000000000000000000000000006020830152604082019050919050565b6000610e0860298361114c565b91507f4d7573742077616974203330207365636f6e6473206265666f7265207761766960008301527f6e6720616761696e2e00000000000000000000000000000000000000000000006020830152604082019050919050565b6000610e6e600083611130565b9150600082019050919050565b6000606083016000830151610e936000860182610c2a565b5060208301518482036020860152610eab8282610cbd565b9150506040830151610ec06040860182610ecb565b508091505092915050565b610ed4816111e5565b82525050565b610ee3816111e5565b82525050565b6000610ef482610e61565b9150819050919050565b60006020820190508181036000830152610f188184610c48565b905092915050565b60006020820190508181036000830152610f3a8184610cf6565b905092915050565b60006040820190508181036000830152610f5c8185610cf6565b9050610f6b6020830184610c39565b9392505050565b60006060820190508181036000830152610f8c8186610cf6565b9050610f9b6020830185610c39565b610fa86040830184610eda565b949350505050565b60006040820190508181036000830152610fca8185610cf6565b9050610fd96020830184610eda565b9392505050565b60006020820190508181036000830152610ff981610d2f565b9050919050565b6000602082019050818103600083015261101981610d95565b9050919050565b6000602082019050818103600083015261103981610dfb565b9050919050565b60006020820190506110556000830184610eda565b92915050565b60006040820190506110706000830185610eda565b81810360208301526110828184610cf6565b90509392505050565b6000604051905081810181811067ffffffffffffffff821117156110b2576110b1611321565b5b8060405250919050565b600067ffffffffffffffff8211156110d7576110d6611321565b5b601f19601f8301169050602081019050919050565b6000819050602082019050919050565b600081519050919050565b600081519050919050565b6000602082019050919050565b600082825260208201905092915050565b600081905092915050565b600082825260208201905092915050565b600082825260208201905092915050565b6000611168826111e5565b9150611173836111e5565b9250827fffffffffffffffffffffffffffffffffffffffffffffffffffffffffffffffff038211156111a8576111a7611294565b5b828201905092915050565b60006111be826111c5565b9050919050565b600073ffffffffffffffffffffffffffffffffffffffff82169050919050565b6000819050919050565b82818337600083830152505050565b60005b8381101561121c578082015181840152602081019050611201565b8381111561122b576000848401525b50505050565b6000600282049050600182168061124957607f821691505b6020821081141561125d5761125c6112f2565b5b50919050565b600061126e826111e5565b9150611279836111e5565b925082611289576112886112c3565b5b828206905092915050565b7f4e487b7100000000000000000000000000000000000000000000000000000000600052601160045260246000fd5b7f4e487b7100000000000000000000000000000000000000000000000000000000600052601260045260246000fd5b7f4e487b7100000000000000000000000000000000000000000000000000000000600052602260045260246000fd5b7f4e487b7100000000000000000000000000000000000000000000000000000000600052604160045260246000fd5b6000601f19601f8301169050919050565b61136a816111b3565b811461137557600080fd5b5056fea264697066735822122074199c54e14cdeb96b61f60ff03fc67316249f7ed996f4f3233a139323f1abc664736f6c63430008000033",
	"linkReferences": {},
	"deployedLinkReferences": {}
}